{
	"data": {
		"bytecode": {
			"linkReferences": {},
			"object": "608060405234801561001057600080fd5b50336000806101000a81548173ffffffffffffffffffffffffffffffffffffffff021916908373ffffffffffffffffffffffffffffffffffffffff160217905550610aae806100606000396000f3fe6080604052600436106100425760003560e01c8062f714ce146100a05780638da5cb5b146100c95780639db5dbe4146100f4578063b69ef8a81461011d5761009b565b3661009b573460016000828254610059919061052c565b925050819055507ff1b03f708b9c39f453fe3f0cef84164c7d6f7df836df0796e1e9c2bce6ee397e33346040516100919291906105b0565b60405180910390a1005b600080fd5b3480156100ac57600080fd5b506100c760048036038101906100c29190610648565b610148565b005b3480156100d557600080fd5b506100de6102ba565b6040516100eb9190610688565b60405180910390f35b34801561010057600080fd5b5061011b6004803603810190610116919061070d565b6102de565b005b34801561012957600080fd5b506101326104ed565b60405161013f9190610760565b60405180910390f35b60008054906101000a900473ffffffffffffffffffffffffffffffffffffffff1673ffffffffffffffffffffffffffffffffffffffff163373ffffffffffffffffffffffffffffffffffffffff16146101d6576040517f08c379a00000000000000000000000000000000000000000000000000000000081526004016101cd906107d8565b60405180910390fd5b60015482111561021b576040517f08c379a000000000000000000000000000000000000000000000000000000000815260040161021290610844565b60405180910390fd5b8073ffffffffffffffffffffffffffffffffffffffff166108fc839081150290604051600060405180830381858888f19350505050158015610261573d6000803e3d6000fd5b5081600160008282546102749190610864565b925050819055507ffda3a3e0e1479b43cb1c701f7576187f4c4ad80768d627387e00184302f7d88e3382846040516102ae939291906108f7565b60405180910390a15050565b60008054906101000a900473ffffffffffffffffffffffffffffffffffffffff1681565b60008054906101000a900473ffffffffffffffffffffffffffffffffffffffff1673ffffffffffffffffffffffffffffffffffffffff163373ffffffffffffffffffffffffffffffffffffffff161461036c576040517f08c379a0000000000000000000000000000000000000000000000000000000008152600401610363906107d8565b60405180910390fd5b60008373ffffffffffffffffffffffffffffffffffffffff166370a08231306040518263ffffffff1660e01b81526004016103a79190610688565b602060405180830381865afa1580156103c4573d6000803e3d6000fd5b505050506040513d601f19601f820116820180604052508101906103e89190610943565b90508082111561042d576040517f08c379a0000000000000000000000000000000000000000000000000000000008152600401610424906109bc565b60405180910390fd5b8373ffffffffffffffffffffffffffffffffffffffff1663a9059cbb84846040518363ffffffff1660e01b81526004016104689291906105b0565b6020604051808303816000875af1158015610487573d6000803e3d6000fd5b505050506040513d601f19601f820116820180604052508101906104ab9190610a14565b507ffda3a3e0e1479b43cb1c701f7576187f4c4ad80768d627387e00184302f7d88e3384846040516104df93929190610a41565b60405180910390a150505050565b60015481565b6000819050919050565b7f4e487b7100000000000000000000000000000000000000000000000000000000600052601160045260246000fd5b6000610537826104f3565b9150610542836104f3565b925082820190508082111561055a576105596104fd565b5b92915050565b600073ffffffffffffffffffffffffffffffffffffffff82169050919050565b600061058b82610560565b9050919050565b61059b81610580565b82525050565b6105aa816104f3565b82525050565b60006040820190506105c56000830185610592565b6105d260208301846105a1565b9392505050565b600080fd5b6105e7816104f3565b81146105f257600080fd5b50565b600081359050610604816105de565b92915050565b600061061582610560565b9050919050565b6106258161060a565b811461063057600080fd5b50565b6000813590506106428161061c565b92915050565b6000806040838503121561065f5761065e6105d9565b5b600061066d858286016105f5565b925050602061067e85828601610633565b9150509250929050565b600060208201905061069d6000830184610592565b92915050565b60006106ae82610580565b9050919050565b6106be816106a3565b81146106c957600080fd5b50565b6000813590506106db816106b5565b92915050565b6106ea81610580565b81146106f557600080fd5b50565b600081359050610707816106e1565b92915050565b600080600060608486031215610726576107256105d9565b5b6000610734868287016106cc565b9350506020610745868287016106f8565b9250506040610756868287016105f5565b9150509250925092565b600060208201905061077560008301846105a1565b92915050565b600082825260208201905092915050565b7f4f6e6c79206f776e65722063616e2077697468647261772066756e6473000000600082015250565b60006107c2601d8361077b565b91506107cd8261078c565b602082019050919050565b600060208201905081810360008301526107f1816107b5565b9050919050565b7f496e73756666696369656e742066756e64730000000000000000000000000000600082015250565b600061082e60128361077b565b9150610839826107f8565b602082019050919050565b6000602082019050818103600083015261085d81610821565b9050919050565b600061086f826104f3565b915061087a836104f3565b9250828203905081811115610892576108916104fd565b5b92915050565b6000819050919050565b60006108bd6108b86108b384610560565b610898565b610560565b9050919050565b60006108cf826108a2565b9050919050565b60006108e1826108c4565b9050919050565b6108f1816108d6565b82525050565b600060608201905061090c6000830186610592565b61091960208301856108e8565b61092660408301846105a1565b949350505050565b60008151905061093d816105de565b92915050565b600060208284031215610959576109586105d9565b5b60006109678482850161092e565b91505092915050565b7f62616c616e6365206973206c6f77000000000000000000000000000000000000600082015250565b60006109a6600e8361077b565b91506109b182610970565b602082019050919050565b600060208201905081810360008301526109d581610999565b9050919050565b60008115159050919050565b6109f1816109dc565b81146109fc57600080fd5b50565b600081519050610a0e816109e8565b92915050565b600060208284031215610a2a57610a296105d9565b5b6000610a38848285016109ff565b91505092915050565b6000606082019050610a566000830186610592565b610a636020830185610592565b610a7060408301846105a1565b94935050505056fea26469706673582212200551b9b7eeb5d92303c40a0e6fce9e89b5ed8c7c7ae6d2e2b38e90d1bdf5dd1864736f6c63430008100033",
			"opcodes": "PUSH1 0x80 PUSH1 0x40 MSTORE CALLVALUE DUP1 ISZERO PUSH2 0x10 JUMPI PUSH1 0x0 DUP1 REVERT JUMPDEST POP CALLER PUSH1 0x0 DUP1 PUSH2 0x100 EXP DUP2 SLOAD DUP2 PUSH20 0xFFFFFFFFFFFFFFFFFFFFFFFFFFFFFFFFFFFFFFFF MUL NOT AND SWAP1 DUP4 PUSH20 0xFFFFFFFFFFFFFFFFFFFFFFFFFFFFFFFFFFFFFFFF AND MUL OR SWAP1 SSTORE POP PUSH2 0xAAE DUP1 PUSH2 0x60 PUSH1 0x0 CODECOPY PUSH1 0x0 RETURN INVALID PUSH1 0x80 PUSH1 0x40 MSTORE PUSH1 0x4 CALLDATASIZE LT PUSH2 0x42 JUMPI PUSH1 0x0 CALLDATALOAD PUSH1 0xE0 SHR DUP1 PUSH3 0xF714CE EQ PUSH2 0xA0 JUMPI DUP1 PUSH4 0x8DA5CB5B EQ PUSH2 0xC9 JUMPI DUP1 PUSH4 0x9DB5DBE4 EQ PUSH2 0xF4 JUMPI DUP1 PUSH4 0xB69EF8A8 EQ PUSH2 0x11D JUMPI PUSH2 0x9B JUMP JUMPDEST CALLDATASIZE PUSH2 0x9B JUMPI CALLVALUE PUSH1 0x1 PUSH1 0x0 DUP3 DUP3 SLOAD PUSH2 0x59 SWAP2 SWAP1 PUSH2 0x52C JUMP JUMPDEST SWAP3 POP POP DUP2 SWAP1 SSTORE POP PUSH32 0xF1B03F708B9C39F453FE3F0CEF84164C7D6F7DF836DF0796E1E9C2BCE6EE397E CALLER CALLVALUE PUSH1 0x40 MLOAD PUSH2 0x91 SWAP3 SWAP2 SWAP1 PUSH2 0x5B0 JUMP JUMPDEST PUSH1 0x40 MLOAD DUP1 SWAP2 SUB SWAP1 LOG1 STOP JUMPDEST PUSH1 0x0 DUP1 REVERT JUMPDEST CALLVALUE DUP1 ISZERO PUSH2 0xAC JUMPI PUSH1 0x0 DUP1 REVERT JUMPDEST POP PUSH2 0xC7 PUSH1 0x4 DUP1 CALLDATASIZE SUB DUP2 ADD SWAP1 PUSH2 0xC2 SWAP2 SWAP1 PUSH2 0x648 JUMP JUMPDEST PUSH2 0x148 JUMP JUMPDEST STOP JUMPDEST CALLVALUE DUP1 ISZERO PUSH2 0xD5 JUMPI PUSH1 0x0 DUP1 REVERT JUMPDEST POP PUSH2 0xDE PUSH2 0x2BA JUMP JUMPDEST PUSH1 0x40 MLOAD PUSH2 0xEB SWAP2 SWAP1 PUSH2 0x688 JUMP JUMPDEST PUSH1 0x40 MLOAD DUP1 SWAP2 SUB SWAP1 RETURN JUMPDEST CALLVALUE DUP1 ISZERO PUSH2 0x100 JUMPI PUSH1 0x0 DUP1 REVERT JUMPDEST POP PUSH2 0x11B PUSH1 0x4 DUP1 CALLDATASIZE SUB DUP2 ADD SWAP1 PUSH2 0x116 SWAP2 SWAP1 PUSH2 0x70D JUMP JUMPDEST PUSH2 0x2DE JUMP JUMPDEST STOP JUMPDEST CALLVALUE DUP1 ISZERO PUSH2 0x129 JUMPI PUSH1 0x0 DUP1 REVERT JUMPDEST POP PUSH2 0x132 PUSH2 0x4ED JUMP JUMPDEST PUSH1 0x40 MLOAD PUSH2 0x13F SWAP2 SWAP1 PUSH2 0x760 JUMP JUMPDEST PUSH1 0x40 MLOAD DUP1 SWAP2 SUB SWAP1 RETURN JUMPDEST PUSH1 0x0 DUP1 SLOAD SWAP1 PUSH2 0x100 EXP SWAP1 DIV PUSH20 0xFFFFFFFFFFFFFFFFFFFFFFFFFFFFFFFFFFFFFFFF AND PUSH20 0xFFFFFFFFFFFFFFFFFFFFFFFFFFFFFFFFFFFFFFFF AND CALLER PUSH20 0xFFFFFFFFFFFFFFFFFFFFFFFFFFFFFFFFFFFFFFFF AND EQ PUSH2 0x1D6 JUMPI PUSH1 0x40 MLOAD PUSH32 0x8C379A000000000000000000000000000000000000000000000000000000000 DUP2 MSTORE PUSH1 0x4 ADD PUSH2 0x1CD SWAP1 PUSH2 0x7D8 JUMP JUMPDEST PUSH1 0x40 MLOAD DUP1 SWAP2 SUB SWAP1 REVERT JUMPDEST PUSH1 0x1 SLOAD DUP3 GT ISZERO PUSH2 0x21B JUMPI PUSH1 0x40 MLOAD PUSH32 0x8C379A000000000000000000000000000000000000000000000000000000000 DUP2 MSTORE PUSH1 0x4 ADD PUSH2 0x212 SWAP1 PUSH2 0x844 JUMP JUMPDEST PUSH1 0x40 MLOAD DUP1 SWAP2 SUB SWAP1 REVERT JUMPDEST DUP1 PUSH20 0xFFFFFFFFFFFFFFFFFFFFFFFFFFFFFFFFFFFFFFFF AND PUSH2 0x8FC DUP4 SWAP1 DUP2 ISZERO MUL SWAP1 PUSH1 0x40 MLOAD PUSH1 0x0 PUSH1 0x40 MLOAD DUP1 DUP4 SUB DUP2 DUP6 DUP9 DUP9 CALL SWAP4 POP POP POP POP ISZERO DUP1 ISZERO PUSH2 0x261 JUMPI RETURNDATASIZE PUSH1 0x0 DUP1 RETURNDATACOPY RETURNDATASIZE PUSH1 0x0 REVERT JUMPDEST POP DUP2 PUSH1 0x1 PUSH1 0x0 DUP3 DUP3 SLOAD PUSH2 0x274 SWAP2 SWAP1 PUSH2 0x864 JUMP JUMPDEST SWAP3 POP POP DUP2 SWAP1 SSTORE POP PUSH32 0xFDA3A3E0E1479B43CB1C701F7576187F4C4AD80768D627387E00184302F7D88E CALLER DUP3 DUP5 PUSH1 0x40 MLOAD PUSH2 0x2AE SWAP4 SWAP3 SWAP2 SWAP1 PUSH2 0x8F7 JUMP JUMPDEST PUSH1 0x40 MLOAD DUP1 SWAP2 SUB SWAP1 LOG1 POP POP JUMP JUMPDEST PUSH1 0x0 DUP1 SLOAD SWAP1 PUSH2 0x100 EXP SWAP1 DIV PUSH20 0xFFFFFFFFFFFFFFFFFFFFFFFFFFFFFFFFFFFFFFFF AND DUP2 JUMP JUMPDEST PUSH1 0x0 DUP1 SLOAD SWAP1 PUSH2 0x100 EXP SWAP1 DIV PUSH20 0xFFFFFFFFFFFFFFFFFFFFFFFFFFFFFFFFFFFFFFFF AND PUSH20 0xFFFFFFFFFFFFFFFFFFFFFFFFFFFFFFFFFFFFFFFF AND CALLER PUSH20 0xFFFFFFFFFFFFFFFFFFFFFFFFFFFFFFFFFFFFFFFF AND EQ PUSH2 0x36C JUMPI PUSH1 0x40 MLOAD PUSH32 0x8C379A000000000000000000000000000000000000000000000000000000000 DUP2 MSTORE PUSH1 0x4 ADD PUSH2 0x363 SWAP1 PUSH2 0x7D8 JUMP JUMPDEST PUSH1 0x40 MLOAD DUP1 SWAP2 SUB SWAP1 REVERT JUMPDEST PUSH1 0x0 DUP4 PUSH20 0xFFFFFFFFFFFFFFFFFFFFFFFFFFFFFFFFFFFFFFFF AND PUSH4 0x70A08231 ADDRESS PUSH1 0x40 MLOAD DUP3 PUSH4 0xFFFFFFFF AND PUSH1 0xE0 SHL DUP2 MSTORE PUSH1 0x4 ADD PUSH2 0x3A7 SWAP2 SWAP1 PUSH2 0x688 JUMP JUMPDEST PUSH1 0x20 PUSH1 0x40 MLOAD DUP1 DUP4 SUB DUP2 DUP7 GAS STATICCALL ISZERO DUP1 ISZERO PUSH2 0x3C4 JUMPI RETURNDATASIZE PUSH1 0x0 DUP1 RETURNDATACOPY RETURNDATASIZE PUSH1 0x0 REVERT JUMPDEST POP POP POP POP PUSH1 0x40 MLOAD RETURNDATASIZE PUSH1 0x1F NOT PUSH1 0x1F DUP3 ADD AND DUP3 ADD DUP1 PUSH1 0x40 MSTORE POP DUP2 ADD SWAP1 PUSH2 0x3E8 SWAP2 SWAP1 PUSH2 0x943 JUMP JUMPDEST SWAP1 POP DUP1 DUP3 GT ISZERO PUSH2 0x42D JUMPI PUSH1 0x40 MLOAD PUSH32 0x8C379A000000000000000000000000000000000000000000000000000000000 DUP2 MSTORE PUSH1 0x4 ADD PUSH2 0x424 SWAP1 PUSH2 0x9BC JUMP JUMPDEST PUSH1 0x40 MLOAD DUP1 SWAP2 SUB SWAP1 REVERT JUMPDEST DUP4 PUSH20 0xFFFFFFFFFFFFFFFFFFFFFFFFFFFFFFFFFFFFFFFF AND PUSH4 0xA9059CBB DUP5 DUP5 PUSH1 0x40 MLOAD DUP4 PUSH4 0xFFFFFFFF AND PUSH1 0xE0 SHL DUP2 MSTORE PUSH1 0x4 ADD PUSH2 0x468 SWAP3 SWAP2 SWAP1 PUSH2 0x5B0 JUMP JUMPDEST PUSH1 0x20 PUSH1 0x40 MLOAD DUP1 DUP4 SUB DUP2 PUSH1 0x0 DUP8 GAS CALL ISZERO DUP1 ISZERO PUSH2 0x487 JUMPI RETURNDATASIZE PUSH1 0x0 DUP1 RETURNDATACOPY RETURNDATASIZE PUSH1 0x0 REVERT JUMPDEST POP POP POP POP PUSH1 0x40 MLOAD RETURNDATASIZE PUSH1 0x1F NOT PUSH1 0x1F DUP3 ADD AND DUP3 ADD DUP1 PUSH1 0x40 MSTORE POP DUP2 ADD SWAP1 PUSH2 0x4AB SWAP2 SWAP1 PUSH2 0xA14 JUMP JUMPDEST POP PUSH32 0xFDA3A3E0E1479B43CB1C701F7576187F4C4AD80768D627387E00184302F7D88E CALLER DUP5 DUP5 PUSH1 0x40 MLOAD PUSH2 0x4DF SWAP4 SWAP3 SWAP2 SWAP1 PUSH2 0xA41 JUMP JUMPDEST PUSH1 0x40 MLOAD DUP1 SWAP2 SUB SWAP1 LOG1 POP POP POP POP JUMP JUMPDEST PUSH1 0x1 SLOAD DUP2 JUMP JUMPDEST PUSH1 0x0 DUP2 SWAP1 POP SWAP2 SWAP1 POP JUMP JUMPDEST PUSH32 0x4E487B7100000000000000000000000000000000000000000000000000000000 PUSH1 0x0 MSTORE PUSH1 0x11 PUSH1 0x4 MSTORE PUSH1 0x24 PUSH1 0x0 REVERT JUMPDEST PUSH1 0x0 PUSH2 0x537 DUP3 PUSH2 0x4F3 JUMP JUMPDEST SWAP2 POP PUSH2 0x542 DUP4 PUSH2 0x4F3 JUMP JUMPDEST SWAP3 POP DUP3 DUP3 ADD SWAP1 POP DUP1 DUP3 GT ISZERO PUSH2 0x55A JUMPI PUSH2 0x559 PUSH2 0x4FD JUMP JUMPDEST JUMPDEST SWAP3 SWAP2 POP POP JUMP JUMPDEST PUSH1 0x0 PUSH20 0xFFFFFFFFFFFFFFFFFFFFFFFFFFFFFFFFFFFFFFFF DUP3 AND SWAP1 POP SWAP2 SWAP1 POP JUMP JUMPDEST PUSH1 0x0 PUSH2 0x58B DUP3 PUSH2 0x560 JUMP JUMPDEST SWAP1 POP SWAP2 SWAP1 POP JUMP JUMPDEST PUSH2 0x59B DUP2 PUSH2 0x580 JUMP JUMPDEST DUP3 MSTORE POP POP JUMP JUMPDEST PUSH2 0x5AA DUP2 PUSH2 0x4F3 JUMP JUMPDEST DUP3 MSTORE POP POP JUMP JUMPDEST PUSH1 0x0 PUSH1 0x40 DUP3 ADD SWAP1 POP PUSH2 0x5C5 PUSH1 0x0 DUP4 ADD DUP6 PUSH2 0x592 JUMP JUMPDEST PUSH2 0x5D2 PUSH1 0x20 DUP4 ADD DUP5 PUSH2 0x5A1 JUMP JUMPDEST SWAP4 SWAP3 POP POP POP JUMP JUMPDEST PUSH1 0x0 DUP1 REVERT JUMPDEST PUSH2 0x5E7 DUP2 PUSH2 0x4F3 JUMP JUMPDEST DUP2 EQ PUSH2 0x5F2 JUMPI PUSH1 0x0 DUP1 REVERT JUMPDEST POP JUMP JUMPDEST PUSH1 0x0 DUP2 CALLDATALOAD SWAP1 POP PUSH2 0x604 DUP2 PUSH2 0x5DE JUMP JUMPDEST SWAP3 SWAP2 POP POP JUMP JUMPDEST PUSH1 0x0 PUSH2 0x615 DUP3 PUSH2 0x560 JUMP JUMPDEST SWAP1 POP SWAP2 SWAP1 POP JUMP JUMPDEST PUSH2 0x625 DUP2 PUSH2 0x60A JUMP JUMPDEST DUP2 EQ PUSH2 0x630 JUMPI PUSH1 0x0 DUP1 REVERT JUMPDEST POP JUMP JUMPDEST PUSH1 0x0 DUP2 CALLDATALOAD SWAP1 POP PUSH2 0x642 DUP2 PUSH2 0x61C JUMP JUMPDEST SWAP3 SWAP2 POP POP JUMP JUMPDEST PUSH1 0x0 DUP1 PUSH1 0x40 DUP4 DUP6 SUB SLT ISZERO PUSH2 0x65F JUMPI PUSH2 0x65E PUSH2 0x5D9 JUMP JUMPDEST JUMPDEST PUSH1 0x0 PUSH2 0x66D DUP6 DUP3 DUP7 ADD PUSH2 0x5F5 JUMP JUMPDEST SWAP3 POP POP PUSH1 0x20 PUSH2 0x67E DUP6 DUP3 DUP7 ADD PUSH2 0x633 JUMP JUMPDEST SWAP2 POP POP SWAP3 POP SWAP3 SWAP1 POP JUMP JUMPDEST PUSH1 0x0 PUSH1 0x20 DUP3 ADD SWAP1 POP PUSH2 0x69D PUSH1 0x0 DUP4 ADD DUP5 PUSH2 0x592 JUMP JUMPDEST SWAP3 SWAP2 POP POP JUMP JUMPDEST PUSH1 0x0 PUSH2 0x6AE DUP3 PUSH2 0x580 JUMP JUMPDEST SWAP1 POP SWAP2 SWAP1 POP JUMP JUMPDEST PUSH2 0x6BE DUP2 PUSH2 0x6A3 JUMP JUMPDEST DUP2 EQ PUSH2 0x6C9 JUMPI PUSH1 0x0 DUP1 REVERT JUMPDEST POP JUMP JUMPDEST PUSH1 0x0 DUP2 CALLDATALOAD SWAP1 POP PUSH2 0x6DB DUP2 PUSH2 0x6B5 JUMP JUMPDEST SWAP3 SWAP2 POP POP JUMP JUMPDEST PUSH2 0x6EA DUP2 PUSH2 0x580 JUMP JUMPDEST DUP2 EQ PUSH2 0x6F5 JUMPI PUSH1 0x0 DUP1 REVERT JUMPDEST POP JUMP JUMPDEST PUSH1 0x0 DUP2 CALLDATALOAD SWAP1 POP PUSH2 0x707 DUP2 PUSH2 0x6E1 JUMP JUMPDEST SWAP3 SWAP2 POP POP JUMP JUMPDEST PUSH1 0x0 DUP1 PUSH1 0x0 PUSH1 0x60 DUP5 DUP7 SUB SLT ISZERO PUSH2 0x726 JUMPI PUSH2 0x725 PUSH2 0x5D9 JUMP JUMPDEST JUMPDEST PUSH1 0x0 PUSH2 0x734 DUP7 DUP3 DUP8 ADD PUSH2 0x6CC JUMP JUMPDEST SWAP4 POP POP PUSH1 0x20 PUSH2 0x745 DUP7 DUP3 DUP8 ADD PUSH2 0x6F8 JUMP JUMPDEST SWAP3 POP POP PUSH1 0x40 PUSH2 0x756 DUP7 DUP3 DUP8 ADD PUSH2 0x5F5 JUMP JUMPDEST SWAP2 POP POP SWAP3 POP SWAP3 POP SWAP3 JUMP JUMPDEST PUSH1 0x0 PUSH1 0x20 DUP3 ADD SWAP1 POP PUSH2 0x775 PUSH1 0x0 DUP4 ADD DUP5 PUSH2 0x5A1 JUMP JUMPDEST SWAP3 SWAP2 POP POP JUMP JUMPDEST PUSH1 0x0 DUP3 DUP3 MSTORE PUSH1 0x20 DUP3 ADD SWAP1 POP SWAP3 SWAP2 POP POP JUMP JUMPDEST PUSH32 0x4F6E6C79206F776E65722063616E2077697468647261772066756E6473000000 PUSH1 0x0 DUP3 ADD MSTORE POP JUMP JUMPDEST PUSH1 0x0 PUSH2 0x7C2 PUSH1 0x1D DUP4 PUSH2 0x77B JUMP JUMPDEST SWAP2 POP PUSH2 0x7CD DUP3 PUSH2 0x78C JUMP JUMPDEST PUSH1 0x20 DUP3 ADD SWAP1 POP SWAP2 SWAP1 POP JUMP JUMPDEST PUSH1 0x0 PUSH1 0x20 DUP3 ADD SWAP1 POP DUP2 DUP2 SUB PUSH1 0x0 DUP4 ADD MSTORE PUSH2 0x7F1 DUP2 PUSH2 0x7B5 JUMP JUMPDEST SWAP1 POP SWAP2 SWAP1 POP JUMP JUMPDEST PUSH32 0x496E73756666696369656E742066756E64730000000000000000000000000000 PUSH1 0x0 DUP3 ADD MSTORE POP JUMP JUMPDEST PUSH1 0x0 PUSH2 0x82E PUSH1 0x12 DUP4 PUSH2 0x77B JUMP JUMPDEST SWAP2 POP PUSH2 0x839 DUP3 PUSH2 0x7F8 JUMP JUMPDEST PUSH1 0x20 DUP3 ADD SWAP1 POP SWAP2 SWAP1 POP JUMP JUMPDEST PUSH1 0x0 PUSH1 0x20 DUP3 ADD SWAP1 POP DUP2 DUP2 SUB PUSH1 0x0 DUP4 ADD MSTORE PUSH2 0x85D DUP2 PUSH2 0x821 JUMP JUMPDEST SWAP1 POP SWAP2 SWAP1 POP JUMP JUMPDEST PUSH1 0x0 PUSH2 0x86F DUP3 PUSH2 0x4F3 JUMP JUMPDEST SWAP2 POP PUSH2 0x87A DUP4 PUSH2 0x4F3 JUMP JUMPDEST SWAP3 POP DUP3 DUP3 SUB SWAP1 POP DUP2 DUP2 GT ISZERO PUSH2 0x892 JUMPI PUSH2 0x891 PUSH2 0x4FD JUMP JUMPDEST JUMPDEST SWAP3 SWAP2 POP POP JUMP JUMPDEST PUSH1 0x0 DUP2 SWAP1 POP SWAP2 SWAP1 POP JUMP JUMPDEST PUSH1 0x0 PUSH2 0x8BD PUSH2 0x8B8 PUSH2 0x8B3 DUP5 PUSH2 0x560 JUMP JUMPDEST PUSH2 0x898 JUMP JUMPDEST PUSH2 0x560 JUMP JUMPDEST SWAP1 POP SWAP2 SWAP1 POP JUMP JUMPDEST PUSH1 0x0 PUSH2 0x8CF DUP3 PUSH2 0x8A2 JUMP JUMPDEST SWAP1 POP SWAP2 SWAP1 POP JUMP JUMPDEST PUSH1 0x0 PUSH2 0x8E1 DUP3 PUSH2 0x8C4 JUMP JUMPDEST SWAP1 POP SWAP2 SWAP1 POP JUMP JUMPDEST PUSH2 0x8F1 DUP2 PUSH2 0x8D6 JUMP JUMPDEST DUP3 MSTORE POP POP JUMP JUMPDEST PUSH1 0x0 PUSH1 0x60 DUP3 ADD SWAP1 POP PUSH2 0x90C PUSH1 0x0 DUP4 ADD DUP7 PUSH2 0x592 JUMP JUMPDEST PUSH2 0x919 PUSH1 0x20 DUP4 ADD DUP6 PUSH2 0x8E8 JUMP JUMPDEST PUSH2 0x926 PUSH1 0x40 DUP4 ADD DUP5 PUSH2 0x5A1 JUMP JUMPDEST SWAP5 SWAP4 POP POP POP POP JUMP JUMPDEST PUSH1 0x0 DUP2 MLOAD SWAP1 POP PUSH2 0x93D DUP2 PUSH2 0x5DE JUMP JUMPDEST SWAP3 SWAP2 POP POP JUMP JUMPDEST PUSH1 0x0 PUSH1 0x20 DUP3 DUP5 SUB SLT ISZERO PUSH2 0x959 JUMPI PUSH2 0x958 PUSH2 0x5D9 JUMP JUMPDEST JUMPDEST PUSH1 0x0 PUSH2 0x967 DUP5 DUP3 DUP6 ADD PUSH2 0x92E JUMP JUMPDEST SWAP2 POP POP SWAP3 SWAP2 POP POP JUMP JUMPDEST PUSH32 0x62616C616E6365206973206C6F77000000000000000000000000000000000000 PUSH1 0x0 DUP3 ADD MSTORE POP JUMP JUMPDEST PUSH1 0x0 PUSH2 0x9A6 PUSH1 0xE DUP4 PUSH2 0x77B JUMP JUMPDEST SWAP2 POP PUSH2 0x9B1 DUP3 PUSH2 0x970 JUMP JUMPDEST PUSH1 0x20 DUP3 ADD SWAP1 POP SWAP2 SWAP1 POP JUMP JUMPDEST PUSH1 0x0 PUSH1 0x20 DUP3 ADD SWAP1 POP DUP2 DUP2 SUB PUSH1 0x0 DUP4 ADD MSTORE PUSH2 0x9D5 DUP2 PUSH2 0x999 JUMP JUMPDEST SWAP1 POP SWAP2 SWAP1 POP JUMP JUMPDEST PUSH1 0x0 DUP2 ISZERO ISZERO SWAP1 POP SWAP2 SWAP1 POP JUMP JUMPDEST PUSH2 0x9F1 DUP2 PUSH2 0x9DC JUMP JUMPDEST DUP2 EQ PUSH2 0x9FC JUMPI PUSH1 0x0 DUP1 REVERT JUMPDEST POP JUMP JUMPDEST PUSH1 0x0 DUP2 MLOAD SWAP1 POP PUSH2 0xA0E DUP2 PUSH2 0x9E8 JUMP JUMPDEST SWAP3 SWAP2 POP POP JUMP JUMPDEST PUSH1 0x0 PUSH1 0x20 DUP3 DUP5 SUB SLT ISZERO PUSH2 0xA2A JUMPI PUSH2 0xA29 PUSH2 0x5D9 JUMP JUMPDEST JUMPDEST PUSH1 0x0 PUSH2 0xA38 DUP5 DUP3 DUP6 ADD PUSH2 0x9FF JUMP JUMPDEST SWAP2 POP POP SWAP3 SWAP2 POP POP JUMP JUMPDEST PUSH1 0x0 PUSH1 0x60 DUP3 ADD SWAP1 POP PUSH2 0xA56 PUSH1 0x0 DUP4 ADD DUP7 PUSH2 0x592 JUMP JUMPDEST PUSH2 0xA63 PUSH1 0x20 DUP4 ADD DUP6 PUSH2 0x592 JUMP JUMPDEST PUSH2 0xA70 PUSH1 0x40 DUP4 ADD DUP5 PUSH2 0x5A1 JUMP JUMPDEST SWAP5 SWAP4 POP POP POP POP JUMP INVALID LOG2 PUSH5 0x6970667358 0x22 SLT KECCAK256 SDIV MLOAD 0xB9 0xB7 0xEE 0xB5 0xD9 0x23 SUB 0xC4 EXP 0xE PUSH16 0xCE9E89B5ED8C7C7AE6D2E2B38E90D1BD CREATE2 0xDD XOR PUSH5 0x736F6C6343 STOP ADDMOD LT STOP CALLER "
		},
		"gasEstimates": {
			"creation": {
				"codeDepositCost": "546800",
				"executionCost": "24847",
				"totalCost": "571647"
			},
			"external": {
				"balance()": "2473",
				"owner()": "2511",
				"transferERC20(address,address,uint256)": "infinite",
				"withdraw(uint256,address)": "infinite"
			}
		},
		"methodIdentifiers": {
			"balance()": "b69ef8a8",
			"owner()": "8da5cb5b",
			"transferERC20(address,address,uint256)": "9db5dbe4",
			"withdraw(uint256,address)": "00f714ce"
		}
	},
	"abi": [
		{
			"inputs": [],
			"stateMutability": "nonpayable",
			"type": "constructor"
		},
		{
			"anonymous": false,
			"inputs": [
				{
					"indexed": false,
					"internalType": "address",
					"name": "_from",
					"type": "address"
				},
				{
					"indexed": false,
					"internalType": "uint256",
					"name": "_amount",
					"type": "uint256"
				}
			],
			"name": "TransferReceived",
			"type": "event"
		},
		{
			"anonymous": false,
			"inputs": [
				{
					"indexed": false,
					"internalType": "address",
					"name": "_from",
					"type": "address"
				},
				{
					"indexed": false,
					"internalType": "address",
					"name": "_destAddr",
					"type": "address"
				},
				{
					"indexed": false,
					"internalType": "uint256",
					"name": "_amount",
					"type": "uint256"
				}
			],
			"name": "TransferSent",
			"type": "event"
		},
		{
			"inputs": [],
			"name": "balance",
			"outputs": [
				{
					"internalType": "uint256",
					"name": "",
					"type": "uint256"
				}
			],
			"stateMutability": "view",
			"type": "function"
		},
		{
			"inputs": [],
			"name": "owner",
			"outputs": [
				{
					"internalType": "address",
					"name": "",
					"type": "address"
				}
			],
			"stateMutability": "view",
			"type": "function"
		},
		{
			"inputs": [
				{
					"internalType": "contract IERC20",
					"name": "token",
					"type": "address"
				},
				{
					"internalType": "address",
					"name": "to",
					"type": "address"
				},
				{
					"internalType": "uint256",
					"name": "amount",
					"type": "uint256"
				}
			],
			"name": "transferERC20",
			"outputs": [],
			"stateMutability": "nonpayable",
			"type": "function"
		},
		{
			"inputs": [
				{
					"internalType": "uint256",
					"name": "amount",
					"type": "uint256"
				},
				{
					"internalType": "address payable",
					"name": "destAddr",
					"type": "address"
				}
			],
			"name": "withdraw",
			"outputs": [],
			"stateMutability": "nonpayable",
			"type": "function"
		},
		{
			"stateMutability": "payable",
			"type": "receive"
		}
	]
}